{
  "_format": "hh-sol-artifact-1",
  "contractName": "CrowdfundingFactory",
  "sourceName": "contracts/fund/CrowdfundingFactory.sol",
  "abi": [
    {
      "inputs": [],
      "stateMutability": "nonpayable",
      "type": "constructor"
    },
    {
      "inputs": [
        {
          "internalType": "address",
          "name": "owner",
          "type": "address"
        }
      ],
      "name": "OwnableInvalidOwner",
      "type": "error"
    },
    {
      "inputs": [
        {
          "internalType": "address",
          "name": "account",
          "type": "address"
        }
      ],
      "name": "OwnableUnauthorizedAccount",
      "type": "error"
    },
    {
      "anonymous": false,
      "inputs": [
        {
          "indexed": true,
          "internalType": "address",
          "name": "owner",
          "type": "address"
        },
        {
          "indexed": false,
          "internalType": "address",
          "name": "campaign",
          "type": "address"
        },
        {
          "indexed": false,
          "internalType": "string",
          "name": "title",
          "type": "string"
        }
      ],
      "name": "CampaignCreated",
      "type": "event"
    },
    {
      "anonymous": false,
      "inputs": [
        {
          "indexed": true,
          "internalType": "address",
          "name": "previousOwner",
          "type": "address"
        },
        {
          "indexed": true,
          "internalType": "address",
          "name": "newOwner",
          "type": "address"
        }
      ],
      "name": "OwnershipTransferred",
      "type": "event"
    },
    {
      "inputs": [
        {
          "internalType": "uint256",
          "name": "",
          "type": "uint256"
        }
      ],
      "name": "campaigns",
      "outputs": [
        {
          "internalType": "address",
          "name": "",
          "type": "address"
        }
      ],
      "stateMutability": "view",
      "type": "function"
    },
    {
      "inputs": [
        {
          "internalType": "address",
          "name": "campaignAddress",
          "type": "address"
        }
      ],
      "name": "contributeToCampaign",
      "outputs": [],
      "stateMutability": "payable",
      "type": "function"
    },
    {
      "inputs": [
        {
          "internalType": "address",
          "name": "_beneficiary",
          "type": "address"
        },
        {
          "internalType": "uint256",
          "name": "_fundingGoalInUsd",
          "type": "uint256"
        },
        {
          "internalType": "uint256",
          "name": "_durationInDays",
          "type": "uint256"
        },
        {
          "internalType": "string",
          "name": "_title",
          "type": "string"
        }
      ],
      "name": "createCampaign",
      "outputs": [
        {
          "internalType": "address",
          "name": "",
          "type": "address"
        }
      ],
      "stateMutability": "nonpayable",
      "type": "function"
    },
    {
      "inputs": [
        {
          "internalType": "address",
          "name": "",
          "type": "address"
        },
        {
          "internalType": "uint256",
          "name": "",
          "type": "uint256"
        }
      ],
      "name": "creatorCampaigns",
      "outputs": [
        {
          "internalType": "address",
          "name": "",
          "type": "address"
        }
      ],
      "stateMutability": "view",
      "type": "function"
    },
    {
      "inputs": [],
      "name": "getCampaignCount",
      "outputs": [
        {
          "internalType": "uint256",
          "name": "count",
          "type": "uint256"
        }
      ],
      "stateMutability": "view",
      "type": "function"
    },
    {
      "inputs": [],
      "name": "getCampaigns",
      "outputs": [
        {
          "internalType": "address[]",
          "name": "",
          "type": "address[]"
        }
      ],
      "stateMutability": "view",
      "type": "function"
    },
    {
      "inputs": [
        {
          "internalType": "uint256",
          "name": "startIndex",
          "type": "uint256"
        },
        {
          "internalType": "uint256",
          "name": "count",
          "type": "uint256"
        }
      ],
      "name": "getCampaignsPaginated",
      "outputs": [
        {
          "internalType": "address[]",
          "name": "",
          "type": "address[]"
        }
      ],
      "stateMutability": "view",
      "type": "function"
    },
    {
      "inputs": [
        {
          "internalType": "address",
          "name": "creator",
          "type": "address"
        }
      ],
      "name": "getCreatorCampaignCount",
      "outputs": [
        {
          "internalType": "uint256",
          "name": "count",
          "type": "uint256"
        }
      ],
      "stateMutability": "view",
      "type": "function"
    },
    {
      "inputs": [
        {
          "internalType": "address",
          "name": "creator",
          "type": "address"
        }
      ],
      "name": "getCreatorCampaigns",
      "outputs": [
        {
          "internalType": "address[]",
          "name": "",
          "type": "address[]"
        }
      ],
      "stateMutability": "view",
      "type": "function"
    },
    {
      "inputs": [],
      "name": "owner",
      "outputs": [
        {
          "internalType": "address",
          "name": "",
          "type": "address"
        }
      ],
      "stateMutability": "view",
      "type": "function"
    },
    {
      "inputs": [],
      "name": "renounceOwnership",
      "outputs": [],
      "stateMutability": "nonpayable",
      "type": "function"
    },
    {
      "inputs": [
        {
          "internalType": "address",
          "name": "newOwner",
          "type": "address"
        }
      ],
      "name": "transferOwnership",
      "outputs": [],
      "stateMutability": "nonpayable",
      "type": "function"
    }
  ],
  "bytecode": "0x6080604052348015600f57600080fd5b503380603557604051631e4fbdf760e01b81526000600482015260240160405180910390fd5b603c816041565b506091565b600080546001600160a01b038381166001600160a01b0319831681178455604051919092169283917f8be0079c531659141344cd1fd0a4f28419497f9722a3daafe3b4186f6b6457e09190a35050565b611d70806100a06000396000f3fe6080604052600436106100a75760003560e01c80638da5cb5b116100645780638da5cb5b1461017f578063a6b036331461019d578063bfdcf5d2146101b2578063ddc8af61146101e8578063f2fde38b14610208578063f597c73b1461022857600080fd5b8063141961bc146100ac5780633c38f3ab146100e9578063548ad9ea146100fe5780636caa92181461011e578063715018a61461013d57806376edca3d14610152575b600080fd5b3480156100b857600080fd5b506100cc6100c7366004610881565b610248565b6040516001600160a01b0390911681526020015b60405180910390f35b6100fc6100f73660046108b6565b610272565b005b34801561010a57600080fd5b506100cc6101193660046108ee565b61044c565b34801561012a57600080fd5b506001545b6040519081526020016100e0565b34801561014957600080fd5b506100fc610555565b34801561015e57600080fd5b5061017261016d3660046108b6565b610569565b6040516100e091906109c3565b34801561018b57600080fd5b506000546001600160a01b03166100cc565b3480156101a957600080fd5b506101726105df565b3480156101be57600080fd5b5061012f6101cd3660046108b6565b6001600160a01b031660009081526002602052604090205490565b3480156101f457600080fd5b506100cc610203366004610a10565b610641565b34801561021457600080fd5b506100fc6102233660046108b6565b610679565b34801561023457600080fd5b50610172610243366004610a3a565b6106b7565b6001818154811061025857600080fd5b6000918252602090912001546001600160a01b0316905081565b600034116102d35760405162461bcd60e51b815260206004820152602360248201527f436f6e747269627574696f6e206d75737420626520677265617465722074686160448201526206e20360ec1b60648201526084015b60405180910390fd5b6000805b60015481101561032957826001600160a01b0316600182815481106102fe576102fe610a5c565b6000918252602090912001546001600160a01b0316036103215760019150610329565b6001016102d7565b50806103775760405162461bcd60e51b815260206004820152601e60248201527f43616d706169676e206e6f7420666f756e6420696e207265676973747279000060448201526064016102ca565b60408051600481526024810182526020810180516001600160e01b0316636bddccdd60e11b179052905183916000916001600160a01b0384169134916103bd9190610a96565b60006040518083038185875af1925050503d80600081146103fa576040519150601f19603f3d011682016040523d82523d6000602084013e6103ff565b606091505b50509050806104465760405162461bcd60e51b815260206004820152601360248201527210dbdb9d1c9a589d5d1a5bdb8819985a5b1959606a1b60448201526064016102ca565b50505050565b600080338686868660405161046090610874565b61046e959493929190610ade565b604051809103906000f08015801561048a573d6000803e3d6000fd5b506001805480820182556000919091527fb10e2d527612073b26eecdfd717e6a320cf44b4afac2b0732d9fcbe2b7fa0cf60180546001600160a01b0319166001600160a01b03831617905560405190915033907f37bb6c1f723b45d67f1e74f38d0317e27d160a58f9efcf0dfd9b9d42c78eef5c9061050c9084908790610b23565b60405180910390a23360009081526002602090815260408220805460018101825590835291200180546001600160a01b0319166001600160a01b03831617905595945050505050565b61055d6107f7565b6105676000610824565b565b6001600160a01b0381166000908152600260209081526040918290208054835181840281018401909452808452606093928301828280156105d357602002820191906000526020600020905b81546001600160a01b031681526001909101906020018083116105b5575b50505050509050919050565b6060600180548060200260200160405190810160405280929190818152602001828054801561063757602002820191906000526020600020905b81546001600160a01b03168152600190910190602001808311610619575b5050505050905090565b6002602052816000526040600020818154811061065d57600080fd5b6000918252602090912001546001600160a01b03169150829050565b6106816107f7565b6001600160a01b0381166106ab57604051631e4fbdf760e01b8152600060048201526024016102ca565b6106b481610824565b50565b600154606090831061070b5760405162461bcd60e51b815260206004820152601960248201527f537461727420696e646578206f7574206f6620626f756e64730000000000000060448201526064016102ca565b6001546107188385610b65565b111561072f5760015461072c908490610b78565b91505b60008267ffffffffffffffff81111561074a5761074a6108d8565b604051908082528060200260200182016040528015610773578160200160208202803683370190505b50905060005b838110156107ed57600161078d8287610b65565b8154811061079d5761079d610a5c565b9060005260206000200160009054906101000a90046001600160a01b03168282815181106107cd576107cd610a5c565b6001600160a01b0390921660209283029190910190910152600101610779565b5090505b92915050565b6000546001600160a01b031633146105675760405163118cdaa760e01b81523360048201526024016102ca565b600080546001600160a01b038381166001600160a01b0319831681178455604051919092169283917f8be0079c531659141344cd1fd0a4f28419497f9722a3daafe3b4186f6b6457e09190a35050565b6111af80610b8c83390190565b60006020828403121561089357600080fd5b5035919050565b80356001600160a01b03811681146108b157600080fd5b919050565b6000602082840312156108c857600080fd5b6108d18261089a565b9392505050565b634e487b7160e01b600052604160045260246000fd5b6000806000806080858703121561090457600080fd5b61090d8561089a565b93506020850135925060408501359150606085013567ffffffffffffffff8082111561093857600080fd5b818701915087601f83011261094c57600080fd5b81358181111561095e5761095e6108d8565b604051601f8201601f19908116603f01168101908382118183101715610986576109866108d8565b816040528281528a602084870101111561099f57600080fd5b82602086016020830137600060208483010152809550505050505092959194509250565b6020808252825182820181905260009190848201906040850190845b81811015610a045783516001600160a01b0316835292840192918401916001016109df565b50909695505050505050565b60008060408385031215610a2357600080fd5b610a2c8361089a565b946020939093013593505050565b60008060408385031215610a4d57600080fd5b50508035926020909101359150565b634e487b7160e01b600052603260045260246000fd5b60005b83811015610a8d578181015183820152602001610a75565b50506000910152565b60008251610aa8818460208701610a72565b9190910192915050565b60008151808452610aca816020860160208601610a72565b601f01601f19169290920160200192915050565b6001600160a01b03868116825285166020820152604081018490526060810183905260a060808201819052600090610b1890830184610ab2565b979650505050505050565b6001600160a01b0383168152604060208201819052600090610b4790830184610ab2565b949350505050565b634e487b7160e01b600052601160045260246000fd5b808201808211156107f1576107f1610b4f565b818103818111156107f1576107f1610b4f56fe608060405234801561001057600080fd5b506040516111af3803806111af83398101604081905261002f916101bc565b60016000556001600160a01b03851661007f5760405162461bcd60e51b815260206004820152600d60248201526c24b73b30b634b21037bbb732b960991b60448201526064015b60405180910390fd5b6001600160a01b0384166100d55760405162461bcd60e51b815260206004820152601360248201527f496e76616c69642062656e6566696369617279000000000000000000000000006044820152606401610076565b600083116101145760405162461bcd60e51b815260206004820152600c60248201526b125b9d985b1a590819dbd85b60a21b6044820152606401610076565b600180546001600160a01b038088166001600160a01b031992831617909255600280549287169290911691909117905561015683670de0b6b3a76400006102d1565b60035561016682620151806102d1565b61017090426102ee565b600455600761017f828261038c565b50505050505061044b565b80516001600160a01b03811681146101a157600080fd5b919050565b634e487b7160e01b600052604160045260246000fd5b600080600080600060a086880312156101d457600080fd5b6101dd8661018a565b945060206101ec81880161018a565b6040880151606089015160808a015192975090955093506001600160401b038082111561021857600080fd5b818901915089601f83011261022c57600080fd5b81518181111561023e5761023e6101a6565b604051601f8201601f19908116603f01168101908382118183101715610266576102666101a6565b816040528281528c8684870101111561027e57600080fd5b600093505b828410156102a05784840186015181850187015292850192610283565b60008684830101528096505050505050509295509295909350565b634e487b7160e01b600052601160045260246000fd5b80820281158282048414176102e8576102e86102bb565b92915050565b808201808211156102e8576102e86102bb565b600181811c9082168061031557607f821691505b60208210810361033557634e487b7160e01b600052602260045260246000fd5b50919050565b601f821115610387576000816000526020600020601f850160051c810160208610156103645750805b601f850160051c820191505b8181101561038357828155600101610370565b5050505b505050565b81516001600160401b038111156103a5576103a56101a6565b6103b9816103b38454610301565b8461033b565b602080601f8311600181146103ee57600084156103d65750858301515b600019600386901b1c1916600185901b178555610383565b600085815260208120601f198616915b8281101561041d578886015182559484019460019091019084016103fe565b508582101561043b5787850151600019600388901b60f8161c191681555b5050505050600190811b01905550565b610d558061045a6000396000f3fe6080604052600436106100ec5760003560e01c806342e94c901161008a578063a1211bc011610059578063a1211bc01461030f578063d424f62814610324578063d6290cd71461033e578063d7bb99ba1461036757600080fd5b806342e94c90146102715780634a79d50c1461029e5780638da5cb5b146102c05780639fdd82e8146102e057600080fd5b806329dcb0cf116100c657806329dcb0cf146101e95780632b3b30901461020d57806338af3eed14610223578063427c0c7f1461025b57600080fd5b806301cb3b201461015757806308200a7c1461016c578063096bbd28146101ae57600080fd5b36610152576001546001600160a01b031633146101505760405162461bcd60e51b815260206004820152601c60248201527f446972656374207472616e7366657273206e6f7420616c6c6f7765640000000060448201526064015b60405180910390fd5b005b600080fd5b34801561016357600080fd5b5061015061036f565b34801561017857600080fd5b506101816103d5565b6040805193845260009290920b602084015267ffffffffffffffff16908201526060015b60405180910390f35b3480156101ba57600080fd5b506101cc665193148bd554d160c21b81565b6040516affffffffffffffffffffff1990911681526020016101a5565b3480156101f557600080fd5b506101ff60045481565b6040519081526020016101a5565b34801561021957600080fd5b506101ff60035481565b34801561022f57600080fd5b50600254610243906001600160a01b031681565b6040516001600160a01b0390911681526020016101a5565b34801561026757600080fd5b506101ff60055481565b34801561027d57600080fd5b506101ff61028c366004610a3d565b60086020526000908152604090205481565b3480156102aa57600080fd5b506102b3610466565b6040516101a59190610aa7565b3480156102cc57600080fd5b50600154610243906001600160a01b031681565b3480156102ec57600080fd5b506006546102ff90610100900460ff1681565b60405190151581526020016101a5565b34801561031b57600080fd5b506101506104f4565b34801561033057600080fd5b506006546102ff9060ff1681565b34801561034a57600080fd5b506103536106e4565b6040516101a5989796959493929190610aba565b6101506107cf565b600654610100900460ff161561038157565b60008061038c6103d5565b509092509050600061039f82600a610c17565b836005546103ad9190610c26565b6103b79190610c3d565b905060035481106103d0576006805460ff191660011790555b505050565b6000806000806103e3610932565b6040516349f4fc0360e11b8152665193148bd554d160c21b60048201529091506001600160a01b038216906393e9f806906024016060604051808303816000875af1158015610436573d6000803e3d6000fd5b505050506040513d601f19601f8201168201806040525081019061045a9190610c5f565b93509350935050909192565b6007805461047390610cb5565b80601f016020809104026020016040519081016040528092919081815260200182805461049f90610cb5565b80156104ec5780601f106104c1576101008083540402835291602001916104ec565b820191906000526020600020905b8154815290600101906020018083116104cf57829003601f168201915b505050505081565b6001546001600160a01b0316331461053b5760405162461bcd60e51b815260206004820152600a60248201526927b7363c9037bbb732b960b11b6044820152606401610147565b6105436109fb565b600654610100900460ff161561058c5760405162461bcd60e51b815260206004820152600e60248201526d105b1c9958591e4818db1bdcd95960921b6044820152606401610147565b60045442118061059e575060065460ff165b6105d95760405162461bcd60e51b815260206004820152600c60248201526b5374696c6c2061637469766560a01b6044820152606401610147565b6006805461ff0019166101001790556105f061036f565b6005546006546040805192835260ff909116151560208301527f153ed4c9c4475018e4899faf78c3171cc7869a9c53a2d247de2ff74377eba788910160405180910390a160065460ff16156106d8576002546005546040516000926001600160a01b031691908381818185875af1925050503d806000811461068e576040519150601f19603f3d011682016040523d82523d6000602084013e610693565b606091505b50509050806106d65760405162461bcd60e51b815260206004820152600f60248201526e151c985b9cd9995c8819985a5b1959608a1b6044820152606401610147565b505b6106e26001600055565b565b600154600254600354600454600554600654600780546000978897889788978897889788976060976001600160a01b03978816979096169560ff808416936101009004169190819061073590610cb5565b80601f016020809104026020016040519081016040528092919081815260200182805461076190610cb5565b80156107ae5780601f10610783576101008083540402835291602001916107ae565b820191906000526020600020905b81548152906001019060200180831161079157829003601f168201915b50505050509050975097509750975097509750975097509091929394959697565b6107d76109fb565b600654610100900460ff16156108215760405162461bcd60e51b815260206004820152600f60248201526e10d85b5c185a59db8818db1bdcd959608a1b6044820152606401610147565b6004544211156108655760405162461bcd60e51b815260206004820152600f60248201526e111958591b1a5b99481c185cdcd959608a1b6044820152606401610147565b600034116108a95760405162461bcd60e51b81526020600482015260116024820152702d32b9379031b7b73a3934b13aba34b7b760791b6044820152606401610147565b33600090815260086020526040812080543492906108c8908490610cef565b9250508190555034600560008282546108e19190610cef565b909155505060055460405133917f5cdc4ab8d637538ead6cc1904d4160343656c8c82bd266635cfd31ac008fffe09161092291348252602082015260400190565b60405180910390a26106d861036f565b600073ad67fe66660fb8dfe9d6b1b4240d8650e30f60196001600160a01b031663159354a260405160200161098190602080825260069082015265233a39b7ab1960d11b604082015260600190565b604051602081830303815290604052805190602001206040518263ffffffff1660e01b81526004016109b591815260200190565b602060405180830381865afa1580156109d2573d6000803e3d6000fd5b505050506040513d601f19601f820116820180604052508101906109f69190610d02565b905090565b600260005403610a1e57604051633ee5aeb560e01b815260040160405180910390fd5b6002600055565b6001600160a01b0381168114610a3a57600080fd5b50565b600060208284031215610a4f57600080fd5b8135610a5a81610a25565b9392505050565b6000815180845260005b81811015610a8757602081850181015186830182015201610a6b565b506000602082860101526020601f19601f83011685010191505092915050565b602081526000610a5a6020830184610a61565b6001600160a01b0389811682528816602082015260408101879052606081018690526080810185905283151560a082015282151560c082015261010060e08201819052600090610b0c83820185610a61565b9b9a5050505050505050505050565b634e487b7160e01b600052601160045260246000fd5b600181815b80851115610b6c578160001904821115610b5257610b52610b1b565b80851615610b5f57918102915b93841c9390800290610b36565b509250929050565b600082610b8357506001610c11565b81610b9057506000610c11565b8160018114610ba65760028114610bb057610bcc565b6001915050610c11565b60ff841115610bc157610bc1610b1b565b50506001821b610c11565b5060208310610133831016604e8410600b8410161715610bef575081810a610c11565b610bf98383610b31565b8060001904821115610c0d57610c0d610b1b565b0290505b92915050565b6000610a5a60ff841683610b74565b8082028115828204841417610c1157610c11610b1b565b600082610c5a57634e487b7160e01b600052601260045260246000fd5b500490565b600080600060608486031215610c7457600080fd5b8351925060208401518060000b8114610c8c57600080fd5b604085015190925067ffffffffffffffff81168114610caa57600080fd5b809150509250925092565b600181811c90821680610cc957607f821691505b602082108103610ce957634e487b7160e01b600052602260045260246000fd5b50919050565b80820180821115610c1157610c11610b1b565b600060208284031215610d1457600080fd5b8151610a5a81610a2556fea26469706673582212207c83f4d62e7af81162f77ae06fd7dec036989214becdb2a3ad4a8c46cf4830ea64736f6c63430008190033a26469706673582212208108ab6c6c429a6128dafdb987a03770dcb3bea48566a9110df9bd18ef4db04864736f6c63430008190033",
  "linkReferences": {},
  "deployedLinkReferences": {}
}